:040000008A152A2A09
:0E000600F201F101F001F801F30100300800F1
:08001400FA1FF213003008008E
:10001C00FB14FB1F1828FF30F300F200F100F00076
:08002C00FA0DF20CFF30080090
:100034007B15FB1F24280130F300F201F101F001CC
:08004400FA0DF20CFF30080078
:0E004C00213083120313FD00FD0B2A2808004B
:10005A000F3083120313FC004730FD00FD0B3328D9
:0A006A00FC0B332800000000080022
:100074007C187028FC1841287C198F283A28A00184
:100084007208031D61287108F2007008F1007808F5
:10009400F000F801A0157208031D61287108F20030
:1000A4007008F100F001A01120167208031D6128E8
:1000B4007108F200F101A0157208031983282008C1
:1000C400F302031D031C87280310F21B7028F80D8C
:1000D400F00DF10DF20DF30B672887287B1B701CC4
:1000E4008B28F81F8B28F00A0319F10A0319F20A66
:1000F400031D8B28F20CF10CF00CF30A03198F2862
:100104008B280130FC00032092280230FC001A20C6
:1001140092280430FC000A2092280830FC000E20AB
:0401240000000800CF
:06012800000000000800C9
:10012E0083120313FA017308031D7A147708031D53
:10013E00FA147A080319E328033A0319AE287A1839
:10014E00AB28F61FE128DF28F21FDF28E12872080E
:10015E008039FA00F21376088039F6137A060319FD
:10016E00BC287A080319DF28E128770873020319DF
:10017E00C328031CD728DB28760872020319CA2865
:10018E00031CD728DB28750871020319D128031C1C
:10019E00D728DB28740870020319E3280318DB281C
:1001AE00FA080319E128DF28FA080319DF28E128E5
:1001BE0003140800031008000314031508000800B8
:1001CE00831203132230FC00F801F901FA01FB013E
:1001DE00FC0303191D290310FB0CFA0CF90CF80C87
:1001EE00F30CF20CF10CF00C031CEF28FC030319BA
:1001FE000F297408F80775080318750FF9077608A4
:10020E000318760FFA0777080318770FFB07F32802
:10021E007408F80775080318750FF90776080318A0
:0E022E00760FFA0777080318770FFB07080012
:10023C00A0017208031D33297108F2007008F10047
:10024C00F001A0157208031D33297108F200F101A9
:10025C00A01120167208031941292008F302031D6E
:10026C00031C45290310F21B4929F00DF10DF20D69
:10027C00F30B392945290130FC0003204C290230AD
:0E028C00FC001A204C290430FC000A20080057
:10029A0083120313FB017308031D77080319A429AA
:1002AA0072087606FA007708F3077E30031C612984
:1002BA00F3020318A7296429F302031CAA29720866
:1002CA00F8007108FC007008FD00F817F617031013
:1002DA00F201F101F0011830A0007D1C7E2974089A
:1002EA00F00775080318750FF10776080318760FDB
:1002FA00F207F20CF10CF00CF80CFC0CFD0C0310DC
:10030A00A00B7229F21B8E29F80DF00DF10DF20DDA
:10031A00F3037B1B701CA029F81FA029F00A0319FC
:10032A00F10A0319F20A031DA029F20CF10CF00CD0
:10033A00F30A0319A729FA1FF2130030AC29013076
:10034A000320AC2902300E20AC2904301A20000008
:02035A00080099
:10035C008312031373087706031DC12972087606EE
:10036C00031DC12971087506031DC1297008740687
:0C037C0003190315080003110800080015
:10038800831603132A08203A0319D5292A080D3C95
:10039800031CD32909302A02031CD329D529F001CB
:0803A800D7290130F000080024
:1003B000831203137008F8007108F0007208F1004E
:1003C0007308F200F301FB01FC019E30F300FA0117
:1003D000F21FF629F809F009F109F209F80A0319E0
:1003E000F00A0319F10A0319F20AFA170230FC00A5
:0403F0003A200800A7
:1003F40083160313AA1B012A83128612032A83126B
:10040400861683162A1B092A831206120B2A8312C4
:1004140006168316AA1A112A83128611132A831226
:10042400861583162A1A192A831206111B2A831287
:1004340006155F181F2A0614202A06108614942015
:1004440086108316AA19292A831286122B2A83124C
:10045400861683162A19312A83120612332A831226
:1004640006168316AA18392A831286113B2A831288
:10047400861583162A18412A83120611432A8312E9
:1004840006155F18472A0614482A06108614942075
:0E04940086105F1C4F2A2D20502A26200800BB
:1004A200831203137008F100F0010830FC00710898
:1004B200F40C0318602AFC0B592AF10100340310D2
:1004C200652AF40C0318F107F10CF00CFC0B622AFC
:0204D200080020
:1004D400831603132A08393C031C772A30302A0276
:0E04E400031C772A0130F000782AF00108008E
:1004F20083160313A101A301A4011030A500043047
:1005020024020318A72AF0308312880083162509D3
:100512008800942094200F3083120805F0007008A0
:100522008316A20070080319A12A2308A100220839
:1005320003199F2AA20CA213A10A982A0430A4002C
:10054200A50D25100430A307A40A802A2108F00073
:0205520008009F
:10055400831603132108F2007208F100F20A22083C
:10056400F000A20A700884000008F00071088400FA
:10057400700880007108840000080319C22AAE2A9A
:060584002108F000080050
:10058A008312031372087606A000F801F9017308B2
:10059A007702031CE82A7708FD007308F7007D0834
:1005AA00F3007608FD007208F6007D08F20075086F
:1005BA00FD007108F5007D08F1007408FD0070085F
:1005CA00F4007D08F00077080319612B7208FA001D
:1005DA00F217F61777087302F70003191B2B083076
:1005EA007702031C112BF7007408F9007508F40050
:1005FA007608F500F60108307702031C112BF70084
:10060A007408F9007508F400F50108307702031C34
:10061A00112B7A08F200612B770803191B2B0310A0
:10062A00F60CF50CF40CF90CF70B142BA01F282B65
:10063A00F909F409F509F609F90A0319F40A03197B
:10064A00F50A0319F60A7908F80774080318740FEB
:10065A00F00775080318750FF10776080318760F67
:10066A00F207A01B412B031C512BF20CF10CF00CCE
:10067A00F80CF30F512B5D2B0318552BF809F009D1
:10068A00F109F209F80A0319F00A0319F10A031920
:10069A00F20A8030FA06592B0130FC003A20632B0B
:1006AA000230FC003A20632B0430FC001E21632B2D
:1006BA000830FC000E20632B0030FC00000008000C
:1006CA0083160313220803196E2B220884002108BB
:1006DA008000210884000008F0007008A500700856
:1006EA00AA00C421700803197C2BA10A6E2BA3014E
:1006FA000030A51BFF30F00000307006031D872B69
:10070A002D302506031D8D2B0130A300A10A9A2B3B
:10071A000030A51BFF30F00000307006031D972B38
:10072A002B302506031D9A2BA10AA501A601A701B4
:10073A00A801A901A401231AAB2B210884000008EF
:10074A002E3A031DAB2B2316A10A002C2108840084
:10075A000008AA006A227008031DB42B012CA314F6
:10076A002508083A0319FC2B231EBC2BA403A50A4F
:10077A002608F0002708F1002808F2002908F300EB
:10078A000A30F400F501F601F701E7207008831634
:10079A00A6007108A7007208A8007308A900000043
:1007AA0000002108840030300002F000F101031C2F
:1007BA00F1030030F11BFF30F200F3002608F007C6
:1007CA0027080318270FF10728080318280FF2072C
:1007DA0029080318290FF3077008A6007108A70053
:1007EA007208A8007308A90000000000FF2B231A52
:1007FA00FF2BA40AA10AA02BA50121088400000846
:10080A00653A03190F2C210884000008453A031998
:10081A000F2C682CA10A2108840000082D3A031D18
:10082A00192CA315A10A202C2108840000082B3AB0
:10083A00031D202CA10A210884000008303A031D58
:10084A00282CA10A202C210884000008AA006A2268
:10085A0070080319632C2108840030300002A500B7
:10086A00A10A210884000008AA006A227008031954
:10087A00632C2508F0000A30F4005122831621085F
:10088A00840030300002F10071087007A500A10A47
:10089A00210884000008AA006A2270080319632C40
:1008AA002508F0000A30F40051228316210884003A
:1008BA0030300002F10071087007A500A31D682CF2
:1008CA002508003CA5002508A4072208003A0319B8
:1008DA00742CA31C742C220884002108800026088A
:1008EA00F0002708F1002808F2002908F300D821AF
:1008FA0070088316A6007108A7007208A80073087A
:10090A00A900F401F501F601F7012608F00027080D
:10091A00F1002808F2002908F300AE210130031D76
:10092A000030F000700803199F2CF001F101F20168
:10093A00F301AD2D803083162406F0008030003A92
:10094A00700203181E2D2408003CA40080302406DF
:10095A00F00080300A3A7002031CD02C2608F000FE
:10096A002708F1002808F2002908F300FF30F400F4
:10097A00E630F5005B30F6005D30F7004D21700877
:10098A008316A6007108A7007208A8007308A900B8
:10099A000A30A402AB2C2408003A0319F02C2608CA
:1009AA00F0002708F1002808F2002908F300CD30EA
:1009BA00F400CC30F5004C30F6007B30F7004D21C6
:1009CA0070088316A6007108A7007208A8007308A9
:1009DA00A900A403D02C0130F4000030F500003047
:1009EA00F6000130F7002608F0002708F100280871
:1009FA00F2002908F3009720013003180030F000B4
:100A0A00700803191D2D8316231C142D0130F000C4
:100A1A000030F1008030F2000330F300AD2D0130D8
:100A2A00F0000030F1000030F2000130F300AD2D8B
:100A3A00952D83168030003AF0008030240670022B
:100A4A000318952D0A302402031C482D2608F000AD
:100A5A002708F1002808F2002908F300F930F40009
:100A6A000230F5001530F600A030F7004D2170086D
:100A7A008316A6007108A7007208A8007308A900C7
:100A8A000A30A402272D2408003A0319682D2608E3
:100A9A00F0002708F1002808F2002908F3000030C6
:100AAA00F4000030F5002030F6008230F7004D21C6
:100ABA0070088316A6007108A7007208A8007308B8
:100ACA00A900A403482D2608F4002708F5002808E1
:100ADA00F6002908F700FF30F000FF30F1007F3000
:100AEA00F200FF30F3009720013003180030F000C5
:100AFA0070080319952D8316231C8C2DFF30F000E6
:100B0A00FF30F100FF30F200FF30F300AD2DFF306F
:100B1A00F000FF30F1007F30F200FF30F300AD2D1E
:100B2A008316231CA52D00302606F0000030270668
:100B3A00F10080302806F20000302906F300AD2DBE
:100B4A002608F0002708F1002808F2002908F30017
:020B5A00080091
:100B5C0083120313F8010830FC00700DF80D7408B3
:100B6C00F8020318BB2DF8070310F00DFC0BB32D86
:020B7C0008006F
:060B7E00FB15FF3008002A
:100B8400831203135F1083162108AA00FA215F144D
:020B9400080057
:0E0B9600831203133C088A003B08820008000B
:100BA400E42D803083120313E400F72DC030E400F9
:100BB400F72D9430E400F72DD430E400F72D803085
:100BC400E400F72D831203136408013A0319D32DAB
:100BD4006408023A0319D82D6408033A0319DB2D7B
:100BE4006408043A0319DE2DE12D6503F00064085E
:100BF400F0077008E40070088316AA00FA215F1059
:100C0400E70167086607840000080319122E6708C5
:100C14006607840000088316A100C225E70A032E94
:040C24005F14080051
:100C2800831203137408003A031D2F2E7508003A27
:100C3800031D2F2E7608003A031D2F2E7708003A41
:100C4800031D2F2EFF30F000FF30F1007F30F2003F
:100C5800FF30F300CA2E8312031377080319BE2E40
:100C680073080319C12E720876068039FA00F21744
:100C7800F617A0017208F8007108FC007008FD0062
:100C88007408FD027508031C750FFC027608031C26
:100C9800760FF802F801FC01FD01031C5A2E03101F
:100CA800F20CF10CF00CF80C0130A0007708F302FC
:100CB800031C642E7E302007F3070318C42E692E08
:100CC8007E302007F307031CC72E1830FA07FD0DE6
:100CD800FC0DF80DF00DF10DF20DA00D7408F002E9
:100CE8007508031C750FF1027608031C760FF202D3
:100CF800760DA004201C822E7D148D2E7408F0071A
:100D080075080318750FF10776080318760AF207B5
:100D18007D10FA031F307A05031D6B2E7B1B7D1C8B
:100D2800B42E0310F00DF10DF20DA00D7408F002B1
:100D38007508031C750FF1027608031C760FF20282
:100D4800760D20040139FD070318FC0A0319F80A77
:100D5800031DB42EF80CFC0CFD0CF30A0319C42E69
:100D6800FA1FF8137808F2007C08F1007D08F000FB
:100D78000030C92E0130BF25C92E02300320C92EEC
:0E0D880004300E20C92E08301A20000008008A
:100D960083120313E501650864078400000803193C
:100DA600DD2E65086407840000088316A100C225AD
:060DB600E50ACE2E080044
:100DBC008312031364088316A100A20165230800A3
:100DCC00792270088312E5007008003A0319FA2E94
:100DDC0001306502F000F101031CF1037008640797
:0C0DEC0084000008F000FB2EF00108005D
:100DF8008316031386100610061186110612861232
:100E080083128610061086120612861106112D20EE
:100E18002D202D20861506158614942086102D2049
:100E28008614942086102D208614942086102D2058
:100E380006118614942086102D208614942086107E
:100E4800861186168614942086102D208612061583
:100E580086149420861006118614942086102D205E
:100E680086149420861006158614942086102D204A
:100E78000611861494208610861606168615061501
:0C0E88008614942086102D205F140800B2
:0A0E9400FF308316031388000800E6
:0C0E9E00831203138030F606C522080002
:100EAA00CB258A110A128000840ABB0A0319BC0ADC
:080EBA00F003031D552F080091
:100EF800213084001A3083120313F0006130BB00E4
:080F08000730BC00552708006A
:1010000083120313EF018316A00183126408EB001F
:101010006508EC006608ED006708EE006E08FF3A10
:10102000031D1C286D08FF3A031D1C286C08FF3A9D
:10103000031D1C286B08FF3A031D29286808831626
:10104000A1003130A2008A11AA228A150330F000D3
:10105000292A01308312E900ED1F392880306D06FE
:10106000F0007008ED00E90A680884002D30800067
:10107000E80A0030F0006E06031D482870086D066F
:10108000031D482870086C06031D48286B08003AA9
:10109000031D542868088316A1003930A2008A1164
:1010A000AA228A15F001292A83126E08FF3A031D2D
:1010B00063286D08003A031D63286C08003A031D7D
:1010C00063286B08003A031D712868088316A10085
:1010D0003530A2008A11AA228A1583126908F0000D
:1010E000292A83120030F4000030F5000030F600A9
:1010F0007F30F7006B08F0006C08F1006D08F2001B
:101100006E08F3008A1197208A1501300318003009
:10111000F00070080319AA286B08F0006C08F100B1
:101120006D08F2006E08F3000030F4000030F500A6
:101130002030F6008230F7008A114D218A157008A0
:10114000EB007108EC007208ED007308EE008316E6
:10115000A00371280030F4000030F5002030F600C4
:101160008230F70083126B08F0006C08F1006D0804
:10117000F2006E08F3008A1197208A150130031CD3
:101180000030F00070080319E3286B08F0006C08C9
:10119000F1006D08F2006E08F300CD30F400CC30A1
:1011A000F5004C30F6007B30F7008A114D218A158E
:1011B0007008EB007108EC007208ED007308EE0097
:1011C0008316A00AAA28FF3083126B05F800FF30AF
:1011D0006C05F9007F306D05FA0000306E05FB00EC
:1011E0007808F4007908F5007A08F6007B08F70023
:1011F000F40DF50DF60DF70D741000306B05F000D1
:1012000000306C05F10000306D05F200FF306E0516
:10121000F3007008EB007108EC007208ED00730831
:10122000EE0074086B04F00075086C04F100760899
:101230006D04F20077086E04F3007008EB0071088B
:10124000EC007208ED007308EE007F306E02F000D3
:101250007008EA000130EE007008F4006B08F0003E
:101260006C08F1006D08F2006E08F30074080319B1
:101270004029F00DF10DF20DF30D7010FF3E3729EE
:1012800083127008EB007108EC007208ED0073081F
:10129000EE006E08303EF0006808840070088000A0
:1012A000E80A803083162006F0008030013A700290
:1012B000031C63298030063AF0008030200670025B
:1012C000031C63296B298312680884002E30800078
:1012D000E80A0130EF0083120630EA006A08003A9B
:1012E0000319CD29EE016B08F0006C08F1006D08C0
:1012F000F2006E08F300F00DF10DF20DF30D701019
:10130000F00DF10DF20DF30D70106B08F0076C0885
:1013100003186C0FF1076D0803186D0FF2076E08C4
:1013200003186E0FF3077008EB007108EC007208E9
:10133000ED007308EE006B08F0006C08F1006D081A
:10134000F2006E08F300F00DF10DF20DF30D7010C8
:101350007008EB007108EC007208ED007308EE00F5
:101360006E08303EF0006808840070088000E80ACB
:101370006F08003A031DCA298316A0032008003A0B
:10138000031DCA298312680884002E308000E80AF1
:101390000130EF008312EA036E29FF3068078400F2
:1013A0000008303A031DD629E803CD29FF3068072D
:1013B000840000082E3A031DDE29E8038316200866
:1013C000003A0319242A83126808840065308000DB
:1013D000E80A803083162006F0008030003A700260
:1013E0000318FC298312680884002D308000E80A65
:1013F00083162008003CA00020088312EA00831610
:101400002008093C0318132A0A30F40083126A08E2
:10141000F0008A11AE258A153030F0076808840084
:1014200070088000E80A83120A30F4006A08F000AD
:101430008A11AE258A157808F0003030F007680868
:10144000840070088000E80A831268088400800124
:04145000F00108009F
:101454008A117C278A158A114A278A158A11FC2643
:101464008A1501308316AA008A11FA218A150C30D4
:101474008316AA008A11FA218A152130E4008A1100
:10148400E6268A157008E0003D1C6F2A60080319DF
:101494006F2AE1013D1001308316AA008A11FA2156
:1014A4008A1502308316AA008A11FA218A15E301EB
:1014B4000830630203186F2A63084E3E84008001DB
:1014C40063083E3E8400800163083E3EF00008301D
:1014D400700784008001E30A5A2A30306002031C3A
:1014E400782A6008393C031C782A7D2A60082E3A41
:1014F40003197D2A952A61084E3E84006008800005
:10150400E10A08306102031C882AE101013061020A
:10151400F000F101031CF10370084E3EE4008A114F
:10152400CB268A15BC2B60082B3A0319A62A60081F
:101534002D3A0319A62A60082F3A0319A62A60082F
:101544002A3A0319A62ACA2A6008E200E1016008BF
:101554008316A1008A11C2258A154E30E4008A112F
:10156400DE268A15831203137008D7007108D80089
:101574007208D9007308DA00E30108306302031823
:10158400C92A63084E3E84008001E30ABF2ABC2BAB
:1015940060083D3A031DBC2B4E30E4008A11DE2660
:1015A4008A15831203137008DB007108DC007208CB
:1015B400DD007308DE00BD103D308316A1008A11E2
:1015C400C2258A158D2B5708F0005808F1005908D8
:1015D400F2005A08F3005B08F4005C08F5005D08AB
:1015E400F6005E08F7008A11C5228A157008D70034
:1015F4007108D8007208D9007308DA009D2B5B08C3
:10160400F4005C08F5005D08F6005E08F700570872
:10161400F0005808F1005908F2005A08F3008A1142
:1016240097208A150130031C0030F000700803195C
:10163400382B5B08F4005C08F5005D08F6005E08D2
:10164400F7005708F0005808F1005908F2005A084A
:10165400F3008A114F278A157008D7007108D80043
:101664007208D9007308DA00BD10542B5708F4002F
:101674005808F5005908F6005A08F7005B08F0000E
:101684005C08F1005D08F2005E08F3008A114F2740
:101694008A157008D7007108D8007208D900730839
:1016A400DA00BD149D2B5B08F4005C08F5005D08AE
:1016B400F6005E08F7005708F0005808F1005908D2
:1016C400F2005A08F3008A1114268A157008D7000C
:1016D4007108D8007208D9007308DA009D2B5708E6
:1016E400F0005808F1005908F2005A08F3005B08AA
:1016F400F4005C08F5005D08F6005E08F7008A1146
:101704004D218A157008D7007108D8007208D900D5
:101714007308DA009D2B62082B3A0319E52A620844
:101724002D3A0319012B62082F3A0319552B62082D
:101734002A3A0319712B5708E4005808E5005908A0
:10174400E6005A08E700F001BD18F00A70083E3EB2
:10175400E800002083120313BD1CB22B2D30BE0001
:101764000230E4000130E5003E30E6008A11D22563
:101774008A153D140330FB000830FC007730FD006F
:10178400FD0BC22BFC0BC22BFB0BC22B3F2AC92B1C
:100EC2003734383439342F343434353436342A34E0
:100ED2003134323433342D342E3430343D342B34E7
:080EE2004E3461344E3400343B
:080EEA0049344E344634003453
:040EF2003034003464
:02400E004A2F37
:00000001FF
